:020000042000DA
:10000000FC3F08205D010020330300203D03002059
:1000100047030020510300205B0300200000000084
:100020000000000000000000000000006503002048
:100030006F030020000000007903002083030020EC
:100040008F03002099030020A3030020AD030020AC
:10005000B7030020C1030020CB030020D5030020FC
:10006000DF030020E9030020F3030020FD0300204C
:1000700007040020110400208F0400202505002023
:100080002F050020430500204D05002057050020C6
:10009000610500206B05002075050020810500200A
:1000A0008B05002095050020D70D00209F0500201E
:1000B000A9050020B30500202903002000F002F864
:1000C00000F03CF80AA090E8000C82448344AAF1B6
:1000D0000107DA4501D100F031F8AFF2090EBAE8B4
:1000E0000F0013F0010F18BFFB1A43F0010318476C
:1000F000F012000010130000103A24BF78C878C135
:10010000FAD8520724BF30C830C144BF04680C601D
:10011000704700000023002400250026103A28BF65
:1001200078C1FBD8520728BF30C148BF0B60704769
:100130001FB501F053F81FBD10B510BDDFF80CD08E
:10014000FFF7F6FF00F0BCFE01F034F8FC3F08209A
:1001500003B4FFF7F1FF03BC01F03AF82DE9F041D9
:10016000114C4FF0005511482146401A87100026C7
:10017000AC4209D000BF04E054F8260045F8260040
:10018000761CB6EB970FF7D300F032F8AC4202D0F2
:100190000748056001E006480460FFF78FFFBDE8EF
:1001A000F0814FF00050704700000020BC0000209C
:1001B00008ED00E00146514801290CD1026C42F4DF
:1001C000C0220264426C42F4C0224264C26C42F417
:1001D0000032C2640BE0026C22F440320264426CD2
:1001E00022F440324264C26C22F44032C26470474E
:1001F00000B500234FF40070414908604149C1F83F
:10020000000A4FF400404049C1F854023D48D0F87C
:10021000200410F0807F0DD13C483D49086000BFAC
:1002200000BF3C48006810F0010F03D118465B1C6A
:10023000401CF6D13848364908604FF0000300BF33
:100240003448006810F4803F03D118465B1C401C02
:10025000F6D13248006820F0070000F1010029497A
:10026000C1F830044FF0000300BF2A48006810F0C6
:10027000080F03D118465B1C401CF6D128482949B9
:1002800008604FF0000300BF2248006810F0020F22
:1002900003D118465B1C401CF6D101201F490860A1
:1002A0004FF0000300BF1B48006810F0080F03D197
:1002B00018465B1C401CF6D10220184908604FF01C
:1002C000000300BF1348006810F0080F03D1184660
:1002D0005B1C401CF6D10120FFF76CFF00BD4FF402
:1002E000706101EA0021064A11604FF4706101EA71
:1002F0000021044AC2F8001A7047000000020E40B4
:1003000000080E4000000E4000100E40093F37006C
:1003100020040E4068040E40093F370130040E40AF
:10032000013F072028040E40002000F036FC00BFEB
:10033000FEE7002000F031FC00BFFEE7002000F0E7
:100340002CFC00BFFEE7002000F027FC00BFFEE70A
:10035000002000F022FC00BFFEE7002000F01DFCA2
:1003600000BFFEE7002000F018FC00BFFEE7002001
:1003700000F013FC00BFFEE7002000F00EFC00BF01
:10038000FEE77047002000F008FC00BFFEE70020F9
:1003900000F003FC00BFFEE7002000F0FEFB00BF02
:1003A000FEE7002000F0F9FB00BFFEE7002000F0B0
:1003B000F4FB00BFFEE7002000F0EFFB00BFFEE70C
:1003C000002000F0EAFB00BFFEE7002000F0E5FBA4
:1003D00000BFFEE7002000F0E0FB00BFFEE70020CA
:1003E00000F0DBFB00BFFEE7002000F0D6FB00BF03
:1003F000FEE7002000F0D1FB00BFFEE7002000F088
:10040000CCFB00BFFEE7002000F0C7FB00BFFEE70B
:10041000002000F0C2FB00BFFEE700BF6748007885
:100420000028FBD070470120644908707047002005
:1004300062490870704710B56148406910F4805FE8
:1004400023D0002211465E4800F032F95D4A0021B7
:100450000E2000F083F90E2000F0CBF906225A4955
:10046000574800F025F94FF48050554988605648A8
:100470004278564900F037FC002804DA0A21504837
:1004800000F043F910BDFFF7CEFF00BFFAE710B54B
:100490004B48406910F4805F42D000221146484822
:1004A00000F006F9484800F00BFC002810DA0A2199
:1004B000434800F02AF94FF48050414988600622F1
:1004C00041493F4800F0F4F8002000F066FB10BD01
:1004D0003D48407890B93C48007978B90A213848BD
:1004E00000F013F94FF480503549886006223649F0
:1004F000334800F0DDF8FFF796FFE8E7344A0021C3
:100500000E2000F02BF90E2000F073F92E484278EF
:100510002E492B4800F0CCF84FF4805028498860D1
:1005200000BFD4E7002000F038FB00BFFEE72948F9
:10053000406910F4006F03D04FF400702649086042
:100540007047002000F029FB00BFFEE7002000F00C
:1005500024FB00BFFEE7002000F01FFB00BFFEE70A
:10056000002000F01AFB00BFFEE7002000F015FBA2
:1005700000BFFEE710B51948046A00F0FEFA10BD8E
:10058000002000F00AFB00BFFEE7002000F005FBA2
:1005900000BFFEE7002000F000FB00BFFEE70020E8
:1005A00000F0FBFA00BFFEE7002000F0F6FA00BF03
:1005B000FEE7002000F0F1FA00BFFEE7000008208F
:1005C000004009408F040020040008202800082073
:1005D0003704002000C0094020C109400000084045
:1005E00010B5AC240460416011F4807F06D111F491
:1005F000002F03D1B3FBF2F42409046210BD11B142
:100600004022026001E080220260704711B1102296
:10061000026001E0202202607047016841F004019D
:100620000160016821F00401016070472AB900BF30
:10063000436913F4007FFBD007E002E002B9704782
:10064000521E436913F4007FF8D0C16100BFF6E782
:100650000346D3F80C0160B9D3F81C0148B9C3F8BC
:100660000811C3F80C214FF48070C3F82001012059
:100670007047D3F81C0128B9C3F81811C3F81C211E
:100680000120F5E70020F3E7024629B900BF5069D1
:1006900010F0010FFBD008E003E009B9002070471B
:1006A000491E506910F0010FF7D0906980B2F6E74B
:1006B000034601B13AB90020C3F804010220C3F88F
:1006C000200101207047D3F8040150B9D3F8140178
:1006D00038B9C3F80011C3F804210120C3F8200180
:1006E000F0E7D3F8140128B9C3F81011C3F81421A6
:1006F0000120E7E70020E5E70146486910F0010F17
:1007000001D0012070470020FCE710B503460C46DD
:1007100000BF21461846FFF7B7FF1846FFF7ECFF6A
:100720000028F6D110BD00BF426912F4007FFBD053
:10073000C16100BF426912F4007FFBD070470146DF
:10074000486900F001007047014600BF486910F099
:10075000010FFBD08869C0B2704700002DE9FC5F33
:1007600004460D4616464FF00409C9F1080A4F46E3
:10077000FFF717FD0090C5F3072BE8B2019060B2B8
:1007800000F063F860B200F06AF80EB9394E04E088
:1007900004F11000009941F820600120B84001994F
:1007A000884203D80120B840401E0190012000FA81
:1007B0000AF0584504D8012000FA0AF0A0F1010B14
:1007C0000BFA07F0019940EA010860B2002808DA44
:1007D0004FEA0871090E284A00F00F031B1FD1547D
:1007E00004E04FEA0871090E244A115400BFBDE825
:1007F000FC9F10B5014648B200F01F0301229A4049
:1008000043094FF0E02404EB8303C3F8002100BF49
:1008100010BD10B5044660B200F017F810BD10B559
:10082000014648B200F01F0301229A40144B4409CC
:1008300043F8242000BF10BD10B5044660B200F09C
:100840000EF810BD0F490860704700F01F0201212B
:1008500091400B4A803A430942F82310704700F058
:100860001F0201219140064A8032430942F82310B9
:10087000704700002903002018ED00E000E400E0CC
:1008800000E200E000EF00E030B541640AB14166EB
:1008900000E00166036F046F23EA01052C40046742
:1008A000416030BD10B541640AB1416600E00166A7
:1008B000036F41EA03040467416010BD00F180004A
:1008C00041606FEA01030360C2F30D03C360A0F14E
:1008D0008000704741640AB1416600E001660BB1D7
:1008E000016200E0416241610160704710B5029C05
:1008F00041640CB1416600E001660BB1016500E0A6
:1009000041650AB1016300E041630161016010BD0E
:10091000F8B504460D464AE0607A052842D2DFE881
:1009200000F0030B132D2E00A37A03F00102D4E98B
:100930000010FFF7A9FF37E0A37A03F00102D4E922
:100940000010FFF7AFFF2FE0217A012088402C49EB
:100950000860A67AC6F3400306F00102D4E900104D
:10096000FFF7B8FFA07A10F0020F06D0E369C3F3D7
:100970000D02A1696068FFF7A1FF15E000BFA07A32
:1009800000F001030093A67AC6F38003667A042E72
:1009900001D1012600E00026F2B2D4E90010FFF7F1
:1009A000A5FF01E00020F8BD00BF20346D1E002D22
:1009B000B2D10120F7E7D0E9001211637047D0E906
:1009C0000012516370470146487A032802D0487AE2
:1009D000042802D14868826B01E04868C26B08684D
:1009E000104201D1002070470120FCE70146486811
:1009F000806B0A68104201D1002070470120FCE79B
:100A000010040E4001202E49086000BF2D480068E8
:100A100000F001000128F9D170472B4909684FF017
:100A2000010202FA00F201EA02024FF0010101FAAA
:100A300000F18A4203D001218140244A11607047AD
:100A4000214909684FF0010202FA00F201EA0202AC
:100A50004FF0010101FA00F18A4203D101218140E6
:100A60001B4A116070471B481849086000BF1648B0
:100A70000068184900EA01008842F8D1704715481B
:100A80001349086000BF1048006812490842FAD1B3
:100A900070470D4800680F49884201D10120704716
:100AA0000020FCE70146084800684FF0010202FA06
:100AB00001F200EA0200704700B5FFF7A3FF00BD96
:100AC00004040E4008040E4018040E4010040E40AA
:100AD00014040E40FCFFFF3F6FF00300394908602B
:100AE0004FF003003849C1F8000E38490860384912
:100AF00008606FF0030001F1040108607047354998
:100B0000086810F0010F04D020F00101314A116093
:100B100003E040F001012F4A116070472D49086839
:100B200010F0020F04D020F002012A4A116003E005
:100B300040F00201274A116070472648006820F003
:100B400002002149C1F8380E70472248006820F0A1
:100B500001001D49C1F8380E70471E48006840F07A
:100B600002001949C1F8380E70471A48006840F071
:100B700001001549C1F8380E7047164A11684FF048
:100B80000300014204D021EA0002124B1A6003E084
:100B900041EA00020F4B1A60704700B5034623B1CB
:100BA000012B05D0022B0BD105E0FFF7A8FF07E0D2
:100BB000FFF7B4FF04E0FFF7A2FFFFF7AFFF00BFAE
:100BC00000BF00BD040E0E4000000E40100E0E408F
:100BD000A00E0E40380E0E4002220260D21E82622B
:100BE000026A41607047052101607047022101607F
:100BF00070472DE9F04186B006460D4617469846E7
:100C000000241422174901A800F0A2FAE80B05906D
:100C100006E0641C052C03D1002006B0BDE8F0817D
:100C200001A850F82400B5FBF0F0B6EB104FF0D35C
:100C300009E001A9601C51F82000B5FBF0F0B042BA
:100C400000D202E0641C042CF3D300BF1FB101A842
:100C500050F824003860B8F1000F01D0C8F8004007
:100C60000120DAE7EC11002010B502460021002037
:100C7000134600BF03E05C5C0444E0B2491C052954
:100C8000F9D310BD10B502460B460021002000BF6D
:100C900003E0545C0444E0B2491C9942F9D310BD0E
:100CA00070B504460D46164677202070314628461A
:100CB000FFF7E8FF20712046FFF7D6FF607170BD97
:100CC00010B504462078772802D04FF0FF3010BDD1
:100CD0002046FFF7C9FF6179884202D06FF001001A
:100CE000F5E70020F3E770B504460D461646207878
:100CF000772802D04FF0FF3070BD2046FFF7B4FFD9
:100D00006179884202D06FF00100F5E7314628464C
:100D1000FFF7B8FF2179884202D06FF00200EBE7BD
:100D20000020E9E71CB54FF48000964908606B4647
:100D300001AA95499548FFF75CFF009840F480416F
:100D40009348FFF749FF90490198B1FBF0F08F49B4
:100D5000B0FBF1F08E49C8618E4A00211620FFF7E2
:100D6000FDFC10208A4948621620FFF742FD8848A2
:100D7000FFF739FF1CBD10B500240821864800F09C
:100D8000CDF9854800F0BFF900BF844800780828F5
:100D9000FBD10321804800F06DF904468048814969
:100DA000098820F811407F480088401C7D49088050
:100DB00008460088B0F5805F01DB0020088010BD88
:100DC00010B50346002000BF02E00C5C1C54401C20
:100DD0009042FAD310BD10B500246F4800F078F9A6
:100DE00004460321204600F07EF948B108216A48F4
:100DF00000F096F96948007840F0080067490870EB
:100E000010BD70B5044640F6C1055F4B2246294629
:100E10006548FFF7E5FB654A00210E20FFF79EFCC1
:100E20000E20FFF7E6FC01215F48FFF7E8FB0121F8
:100E30005D48FFF7EBFB70BD00B587B00F215C4844
:100E4000FFF766FD0E20FFF7E8FD4FF4E130FFF7F6
:100E5000D8FF0B20FFF7E1FDFFF73EFE06225549C4
:100E60005148FFF725FC4FF480504F4988604FF4FC
:100E700096630A2250494448CDE90423CDE9020192
:100E8000002300931A461A214348019300F0A9F861
:100E90000321414800F03AF9484A00211A20FFF79F
:100EA0005DFC1A20FFF7A5FC07B000BD10B5034696
:100EB000002000BF01E01954401C9042FBD310BD3C
:100EC0000024802200213E48FFF7F0FF802200210D
:100ED0003848FFF7EBFFFFF7AFFFFFF74EFE43E0A9
:100EE000FFF79BFA3348807803281ED004DC0128E2
:100EF00007D0022835D10CE0042822D0552830D163
:100F00002CE008222E492F48FFF75AFFFFF735FE45
:100F100027E0002402E0FFF72EFF641C2948006848
:100F2000A042F8D8FFF729FE1BE0274827490860B0
:100F30002748486008221C48FFF78AFBFFF71DFE80
:100F40000FE01C48C078234908600846144902682D
:100F50001548FFF77DFBFFF710FE02E0FFF70DFEDF
:100F600000BF00BFFFF763FABAE700207047704781
:100F7000014640F6E440484340F6FF7290FBF2F031
:100F800080B2704710040E4000D8B805801A0600E1
:100F9000000008407505002000800A402400082059
:100FA000A800082026000820004009408F040020E7
:100FB000001200200400082040420F00D70D00203E
:100FC000280008200C0008204E61BC0014000820F6
:100FD000B17F39051C000820416070470121016084
:100FE00070472DE9FF4F0D46DDE90E780D9E109CF0
:100FF0006000B8FBF0F0A0F101095348B4FBF0F039
:10100000119948430121C1EBD00A4F48B4FBF0F0DD
:10101000129948434FF47A71B0FBF1FB0120A840CC
:101020004A4908600098FFF7D9FF02F0010003F079
:101030000E0C40EA0C0007F0100C40EA0C0006F021
:10104000200C40EA0C004FF47C5C0CEA092C40EACE
:101050000C004FF4F81C0CEA0A4C40EA0C004FF06C
:10106000706C0CEA0B6C40EA0C010098FFF7B4FFBF
:10107000BDE8FF8F024608291DD2DFE801F0040712
:101080000A0D10131619136B98B214E0536B98B233
:1010900011E0936B98B20EE0D36B98B20BE0136C37
:1010A00098B208E0536C98B205E0936C98B202E0F5
:1010B000D36C98B200BF00BF70470146C86A704742
:1010C00000B503460A461846FFF7F7FF104000BD7B
:1010D0000146C869704700B503460A461846FFF73F
:1010E000F7FF104000BD10B5024601238B401340AE
:1010F00001248C40A34201D1012000E0002010BD5A
:1011000001464868704702210160704701228A4009
:101110000261704701228A40426170474162704714
:10112000816270474FF4803141627047014688699F
:1011300070470146086A704741667047816670478C
:101140000146486E7047000040420F0010040E40F8
:1011500010B5203AC0F00B80B1E81850203AA0E852
:101160001850B1E81850A0E81850BFF4F5AF5FEA86
:10117000027C24BFB1E81850A0E8185044BF18C939
:1011800018C0BDE810405FEA827C24BF51F8043BE0
:1011900040F8043B08BF7047D20728BF31F8023B34
:1011A00048BF11F8012B28BF20F8023B48BF00F8C8
:1011B000012B70470446AFF300802046FEF7C8FFBE
:1011C0007047000001487047704700BFAC200820FE
:1011D00001491820ABBEFEE72600020010B5FFF75C
:1011E000F1FF4FF00001016010BD0000020000009F
:1011F0000800000020000000800000000000000047
:1012000000002000000C0E400A000000000000005A
:1012100000000000000000000000000000000000CE
:1012200000001000000C0E400A000000000000004A
:1012300000000000000000000000000000000000AE
:1012400000008000000C0E400A01000000000000B9
:10125000000000000000000000000000000000008E
:1012600000004000000C0E400A01000000000000D9
:10127000000000000000000000000000000000006E
:1012800000000001000C0E400A01000000000000F8
:10129000000000000000000000000000000000004E
:1012A00001000000000E0E400B00000000000000D6
:1012B000000000000000000000000000000000002E
:1012C00002000000000E0E400B00000000000000B5
:1012D000000000000000000000000000000000000E
:1012E00000002000000C0E400A0200000000000078
:1012F00000000000000000000000000000000000EE
:1013000000000040000C0E400A0200000000000037
:1013100000000000000000000000000000000000CD
:1013200008000000000E0E400B020000000000004C
:1013300000000000000000000000000000000000AD
:1013400010000000000E0E400B0200000000000024
:10135000000000000000000000000000000000008D
:101360000080000000100E400C0200000000000091
:10137000000000000000000000000000000000006D
:101380000000010000100E400C02000000000000F0
:10139000000000000000000000000000000000004D
:1013A0000000020000100E400C02000000000000CF
:1013B000000000000000000000000000000000002D
:1013C0000000040000100E400C02000000000000AD
:1013D000000000000000000000000000000000000D
:1013E000001400200000082028000000F800002061
:1013F0002814002028000820E0200000140100200C
:1014000000000000000000000000000000000000DC
:1014100000000000000000000000000000000000CC
:081420000302060700000000B2
:040000052000015D79
:00000001FF
